:020000040800F2
:1000000000170020A51A0008AD1A0008AF1A000852
:10001000B11A0008B31A0008B51A00080000000061
:10002000000000000000000000000000B71A0008F7
:10003000B91A000800000000BB1A0008BD1A000829
:10004000BF1A0008BF1A0008BF1A0008BF1A00082C
:10005000BF1A0008BF1A0008BF1A0008BF1A00081C
:10006000BF1A0008BF1A0008BF1A0008BF1A00080C
:10007000BF1A0008BF1A0008BF1A0008BF1A0008FC
:10008000BF1A0008BF1A0008BF1A0008BF1A0008EC
:10009000BF1A0008BF1A0008BF1A0008BF1A0008DC
:1000A000BF1A0008BF1A0008BF1A0008BF1A0008CC
:1000B000BF1A0008CF040008BF1A0008BF1A0008C2
:1000C000BF1A0008BF1A0008BF1A0008BF1A0008AC
:1000D000BF1A0008BF1A0008BF1A0008BF1A00089C
:1000E000BF1A0008BF1A0008BF1A0008BF1A00088C
:1000F000BF1A0008BF1A0008BF1A0008BF1A00087C
:10010000BF1A0008BF1A0008BF1A0008BF1A00086B
:10011000BF1A0008BF1A0008BF1A0008BF1A00085B
:10012000BF1A0008BF1A0008BF1A0008BF1A00084B
:10013000BF1A0008BF1A0008BF1A0008BF1A00083B
:10014000BF1A0008BF1A0008BF1A0008BF1A00082B
:10015000BF1A0008BF1A0008BF1A0008BF1A00081B
:10016000BF1A0008BF1A0008BF1A0008BF1A00080B
:10017000BF1A0008BF1A0008BF1A0008BF1A0008FB
:10018000BF1A0008BF1A000800F002F800F03CF89F
:100190000AA090E8000C82448344AAF10107DA45E2
:1001A00001D100F031F8AFF2090EBAE80F0013F0F8
:1001B000010F18BFFB1A43F001031847E46C00005D
:1001C000046D0000103A24BF78C878C1FAD85207ED
:1001D00024BF30C830C144BF04680C6070470000C1
:1001E0000023002400250026103A28BF78C1FBD840
:1001F000520728BF30C148BF0B6070471FB506F0DB
:10020000CCFD1FBD10B510BD05F046FA1146FFF735
:10021000F5FF00F009F805F064FA03B4FFF7F2FF08
:1002200003BC05F065FA0000A82004F0B9FC04F056
:1002300087F804F033FA4FF4FA7004F011FD04F07B
:1002400097FB04F029FC01F0EDFA00F00FF902E051
:10025000014804F0B1F9FBE71C0600200CB50020B2
:10026000019000907648006840F48030744908603E
:1002700000BF7348006800F4003000900198401CF3
:100280000190009818B90198B0F5A04FF1D16C48D1
:10029000006810F4003F02D00120009001E000202F
:1002A00000900098012845D165484030006840F032
:1002B00080506349403108606248006840F4404023
:1002C000604908605E48083000685D490831086090
:1002D0000846006840F4004008600846006840F4A2
:1002E000A05008605848091F0860081F006840F0C7
:1002F0008070091F086000BF5148006810F0007F3F
:10030000FAD040F20570514908604D480830006845
:1003100020F003004A49083108600846006840F0B0
:100320000200086000BF46480830006800F00C007A
:100330000828F8D10CBD70B5012401254448006897
:1003400040F47000424908603D48006840F00100F8
:100350003B49086000203A49083108603848006885
:100360003C490840364908603B48091D0860081FA1
:10037000006820F48020091F0860002030490C31FB
:100380000860FFF76BFFE00631498039086070BDF7
:1003900070B500200022022300240221284D0835D8
:1003A0002D6805F00C0020B1042806D0082834D1AF
:1003B00007E02A4D2A4E356033E02A4D284E35603D
:1003C0002FE01F4D2D1D2D68C5F380541C4D2D1D94
:1003D0002D6805F03F0154B1224DB5FBF1F5184EE3
:1003E000361D3668C6F3881605FB06F209E01B4D7C
:1003F000B5FBF1F5124E361D3668C6F3881605FBBF
:1004000006F20F4D2D1D2D68C5F301456D1C6B00C7
:10041000B2FBF3F5124E356003E0104D104E35601F
:1004200000BF00BF064D08352D68C5F303150E4EFD
:10043000705D0B4D2D68C540094E356070BD0000E4
:10044000003802400070004008544007003C024061
:1004500088ED00E0FFFFF6FE103000240024F400D9
:100460000000002000127A00040000201FB50121C6
:10047000022002F0DEFD0920029042F2CF00ADF82A
:1004800004000020ADF80600ADF80C0001A93748C3
:1004900002F087FF01221146344803F023FC0121BA
:1004A000324803F007F84FF4E06001F01BFB1D2019
:1004B0008DF8000000208DF8010002208DF8020068
:1004C00001208DF80300684601F011FB1FBD10B537
:1004D0000121264803F01DFC012842D124488068F0
:1004E000401C2349886008468068B0F57A7F26DB87
:1004F0000020886008464078012806D11D48006821
:100500006FEA00001C49C1F8B4021948407820B9CC
:1005100017484068401C1649486015484068042840
:1005200002DB01201249487011480078012806D1E9
:10053000124800686FEA00000F49C1F8B8020C4881
:100540000078012807D1002000F08AFE00210C4825
:1005500000F096FF05E000F037FB01F074F905F0BC
:100560003DF80121014803F0E5FB10BD0004004007
:100570001C010020B402414200004142B802414245
:10058000A40200202DE9F0412DED048B84B000255C
:10059000002600277521D02004F0B8F98046B8F174
:1005A000680F07D00120FE49087004B0BDEC048B31
:1005B000BDE8F0817521D22004F0A8F98046B8F199
:1005C000680F03D00120F6490870EEE704F018FA2E
:1005D000F4484078F349097840EA012000B2ADF8C8
:1005E0000800F048C078EF49897840EA012000B25D
:1005F000ADF80A00EB484079EA49097940EA012060
:1006000000B2ADF80C00BDF80800E749E74A1278DF
:1006100021F81200BDF80A00E549E44A127821F8F1
:100620001200BDF80C00E349E04A127821F81200EC
:1006300000250026002700240CE0DB4830F91400D8
:100640000544DB4830F914000644DA4830F9140058
:100650000744641C142CF0DB142095FBF0F000B26E
:10066000D5490880142096FBF0F000B24880142091
:1006700097FBF0F000B28880CC480078401C142131
:1006800090FBF1F201FB1200C8490870C548407A9E
:10069000C449097A40EA0121C848C08E081A00B24C
:1006A000ADF80000BF48C07ABE49897A40EA01210E
:1006B000C248008F081A00B2ADF80200B948407B6A
:1006C000B849097B40EA0121BC48408F081A00B2B2
:1006D000ADF80400BDF9000000EE100AB8EEC00A43
:1006E000DFEDB70A20EE200AB648B749096800EBEB
:1006F000810080ED000ABDF9020000EE100AB8EE9C
:10070000C00ADFEDAF0A20EE200AAE481430AE4931
:10071000096800EB810080ED000ABDF9040000EEDD
:10072000100AB8EEC00ADFEDA60A20EE200AA5489E
:100730002830A549096800EB810080ED000A9FED93
:10074000A38ADFEDA28A9FEDA19A00241DE09D48B7
:1007500000EB840090ED000A30EE080AB0EE408A0B
:100760009848143000EB840090ED000A30EE280A1F
:10077000F0EE408A9348283000EB840090ED000AA8
:1007800030EE090AB0EE409A641C052CDFDB9FEDC9
:10079000900A28EE000ABDEEC00A10EE100A00B260
:1007A0008C4908809FED8A0A28EE800ABDEEC00AB7
:1007B00010EE100A00B248809FED850A29EE000A6B
:1007C000BDEEC00A10EE100A00B288807E480068B4
:1007D000401C052190FBF1F201FB12007A490860F0
:1007E00000BFE2E600B52DED108B89B0B0EE40BA47
:1007F000F0EE60BAB0EE418AF0EE618AB0EE429A55
:10080000F0EE629A8DED069B8DED048B724890EDB3
:10081000000BB0EE40CAF0EE60CA90ED000BB0EEF7
:1008200040CAF0EE60CA9DED048B53EC182B6B4868
:1008300090ED000B51EC100B05F0F0FC41EC100BAF
:10084000B0EE40AAF0EE60AA9DED069B53EC192B8A
:1008500051EC1A0B05F0E2FC41EC100BB0EE40FA43
:10086000F0EE60FA53EC1F2B51EC1A0B05F08AFDE9
:1008700041EC100BB0EE40EAF0EE60EA53EC1C2BBA
:1008800051EC1B0B06F02EF941EC100BB0EE40FAC8
:10089000F0EE60FA53EC1E2B51EC1F0B05F04CFFF1
:1008A00041EC100B8DED000B53EC1C2B9DED000B60
:1008B00051EC100B05F0B2FC41EC100BB0EE40DA3D
:1008C000F0EE60DA53EC1E2B9FED450B51EC100B54
:1008D00006F008F941EC100BB0EE40FAF0EE60FAC9
:1008E00053EC1A2B51EC1F0B05F026FF41EC100BBB
:1008F0008DED020B9DED020B384880ED000B364864
:1009000080ED00DBB0EE4D0AF0EE6D0A09B0BDECF3
:10091000108B00BD00B52DED108B89B0B0EE40BA44
:10092000F0EE60BAB0EE418AF0EE618AB0EE429A23
:10093000F0EE629A8DED069B8DED048B2A4890EDCA
:10094000000BB0EE40CAF0EE60CA90ED000BB0EEC6
:1009500040CAF0EE60CA9DED048B53EC182B23487F
:1009600090ED000B51EC100B05F058FC41EC100B16
:10097000B0EE40AAF0EE60AA9DED069B53EC192B59
:1009800051EC1A0B05F04AFC41EC100BB0EE40FAAA
:10099000F0EE60FA53EC1F2B51EC1A0B28E000002C
:1009A0001C01002074060020280100201C000020EB
:1009B0005001002078010020500000202C0600206B
:1009C00089A18B3AA001002018000020000000003F
:1009D000CDCC4C3E560000204000002048000020B6
:1009E000000000000000F03F300000203800002030
:1009F00005F0C8FC41EC100BB0EE40EAF0EE60EA06
:100A000053EC1C2B51EC1B0B06F06CF841EC100B5B
:100A1000B0EE40FAF0EE60FA53EC1E2B51EC1F0BD7
:100A200005F08AFE41EC100B8DED000B53EC1C2BF6
:100A30009DED000B51EC100B05F0F0FB41EC100BA1
:100A4000B0EE40DAF0EE60DA53EC1E2B1FED1C0B1B
:100A500051EC100B06F046F841EC100BB0EE40FAEA
:100A6000F0EE60FA53EC1A2B51EC1F0B05F064FE0C
:100A700041EC100B8DED020B9DED020BFE4880ED5D
:100A8000000BFE4880ED00DBB0EE4D0AF0EE6D0A83
:100A900009B0BDEC108B00BD00B52DED108B89B0F9
:100AA000B0EE40BAF0EE60BAB0EE418AF0EE618A84
:100AB000B0EE429AF0EE629A8DED069B8DED048BBE
:100AC000EF4890ED000BB0EE40CAF0EE60CA90ED3A
:100AD000000BB0EE40CAF0EE60CA9DED048B53EC03
:100AE000182BE84890ED000B51EC100B05F096FB2D
:100AF00041EC100BB0EE40AAF0EE60AA9DED069B13
:100B000053EC192B51EC1A0B05F088FB41EC100B40
:100B1000B0EE40FAF0EE60FA53EC1F2B51EC1A0BDA
:100B200005F030FC41EC100BB0EE40EAF0EE60EA6C
:100B300053EC1C2B51EC1B0B05F0D4FF41EC100BBC
:100B4000B0EE40FAF0EE60FA53EC1E2B51EC1F0BA6
:100B500005F0F2FD41EC100B8DED000B53EC1C2B5E
:100B60009DED000B51EC100B05F058FB41EC100B08
:100B7000B0EE40DAF0EE60DA53EC1E2B1FED680B9E
:100B800051EC100B05F0AEFF41EC100BB0EE40FA4B
:100B9000F0EE60FA53EC1A2B51EC1F0B05F0CCFD74
:100BA00041EC100B8DED020B9DED020BB54880ED75
:100BB000000BB34880ED00DBB0EE4D0AF0EE6D0A9D
:100BC00009B0BDEC108B00BD70B52DED0C8B7521FF
:100BD000D02003F09BFE0546682D05D00120AA49D0
:100BE0000870BDEC0C8B70BD03F00AFFA74840787D
:100BF000A649097840EA012000B2A5490880A34827
:100C0000C078A249897840EA012000B2A049488012
:100C10009E4840799D49097940EA012000B29C49EB
:100C200088809A48407A9949097A40EA012000B2BE
:100C3000974988849548C07A9449897A40EA012086
:100C400001B29348C1849148407B9049097B40EAB6
:100C5000012001B28E4801850146B1F9360005F048
:100C600018FD41EC100BB0EE40DAF0EE60DA9FEDCB
:100C7000890B53EC102B51EC1D0B05F05DFD41EC85
:100C8000100BB0EE40BAF0EE60BA8149B1F9240021
:100C900005F0FFFC41EC100BB0EE40DAF0EE60DA4C
:100CA0009FED7C0B53EC102B51EC1D0B05F044FD1C
:100CB00041EC100BB0EE40CAF0EE60CA53EC1B2BB7
:100CC00051EC1C0B05F00EFF41EC100BB0EE40AAEE
:100CD000F0EE60AA51EC1A0B05F06EFA6C49C8638D
:100CE000B1F9380005F0D5FC41EC100BB0EE40DA5C
:100CF000F0EE60DA9FED670B53EC102B51EC1D0BFF
:100D000005F01AFD41EC100BB0EE40BAF0EE60BAFF
:100D10005F49B1F9260005F0BCFC41EC100BB0EEC8
:100D200040DAF0EE60DA9FED5B0B53EC102B51ECE8
:100D30001D0B05F001FD41EC100BB0EE40CAF0EECA
:100D400060CA53EC1B2B51EC1C0B05F0CBFE41ECA5
:100D5000100BB0EE40AAF0EE60AA51EC1A0B05F0B1
:100D60002BFA01464A4801640146B1F93A0005F000
:100D700090FC41EC100BB0EE40DAF0EE60DA9FED43
:100D8000450B53EC102B51EC1D0B05F0D5FC41EC41
:100D9000100BB0EE40CAF0EE60CA3D49B1F9280030
:100DA00005F077FC41EC100BB0EE40DAF0EE60DAC3
:100DB0009FED380B53EC102B51EC1D0B05F0BCFCD8
:100DC00041EC100BB0EE40BAF0EE60BA53EC1C2BC5
:100DD00051EC1B0B05F086FE41EC100BB0EE40AA67
:100DE000F0EE60AA51EC1A0B05F0E6F9014628482E
:100DF00041640146B1F9000005F04BFC41EC100BD9
:100E0000B0EE40BAF0EE60BA9FED242B9FED251BAB
:100E1000FFF742FEB0EE40AAF0EE60AA51EC1A0BCA
:100E200005F008FC00B21A49C880B1F9020005F0CB
:100E300030FC41EC100BB0EE40BAF0EE60BA9FED22
:100E4000172B9FED181BFFF765FDB0EE40AAF0EEE3
:100E500060AA51EC1A0B05F0EDFB01B20C480181C0
:100E60000146B1F9040005F014FC41EC100BB0EEA2
:100E700040BAF0EE60BA19E03800002030000020DF
:100E800020000020280000201C0100207406002003
:100E90002C0600201BE20E8A9C74413F00000000DB
:100EA000000018407B14AE47E17A943F1FED052BFC
:100EB0001FED041BFFF796FCB0EE40AAF0EE60AA0F
:100EC00051EC1A0B05F0B6FB01B27048418190ED70
:100ED0000F0A6F486F49097800EB810080ED000A26
:100EE0006A4890ED100A6A4814306A49097800EBA4
:100EF000810080ED000A654890ED110A6648674957
:100F0000097800EB810080ED000A9FED658ADFED36
:100F1000648A9FED639A002413E05D4800EB84002F
:100F200090ED000A30EE080AB0EE408A58481430BE
:100F300000EB840090ED000A30EE280AF0EE408AC3
:100F4000641C052CE9DB9FED570A28EE000A4F4888
:100F500080ED0F0A9FED530A28EE800A80ED100AFB
:100F6000002409E04C4800EB840090ED000A30EECC
:100F7000090AB0EE409A641C1E2CF3DBB3EE0E0A95
:100F8000C9EE000A4148C0ED110A42480078401CF1
:100F9000052190FBF1F201FB12003E4908703F4829
:100FA0000078401C1E2190FBF1F201FB12003B492E
:100FB000087000BF15E610B53B48B0F90400404288
:100FC00003EE100AB8EEC33AF0EE432A3648B0F901
:100FD000020003EE100AB8EEC33AB0EE432A3248DC
:100FE000B0F9000003EE100AB8EEC33AF0EE431A6F
:100FF0002E48B0F9040003EE100AB8EEC33AB0EE82
:10100000431A2A48B0F9020003EE100AB8EEC33AB8
:10101000F0EE430A2548B0F9000003EE100AB8EEDE
:10102000C33AB0EE430A224890ED004A2148D0ED81
:10103000003A214890ED003A03F0A9FE1F4890EDD8
:10104000010AB1EE400AF3EE040A30EE600A1C48D1
:1010500080ED020A194890ED020A1A4880ED020A52
:101060001248B0F9000000EE100AB8EEC00A1448A9
:1010700080ED050A0D48B0F9020000EE100AB8EE46
:10108000C00A104880ED050A10BD00002C060020A3
:10109000A00100201D000020DC0100201E00002017
:1010A00000000000CDCC4C3E500000205600002037
:1010B000D8000020D4000020D000002088060020A6
:1010C000540200207C02002010B52DED0A8B04464E
:1010D0009A4890ED070AD0ED020A30EE600AB0EEB1
:1010E000409A974890ED000A20EE090AF0EE409AE7
:1010F000924890ED050A9248D0ED020A20EE200AAF
:1011000010EE101A084605F0D7FD41EC100BB0EEBA
:1011100040CAF0EE60CA9FED8B0B53EC102B51ECE4
:101120001C0B05F009FB41EC100BB0EE40BAF0EEE1
:1011300060BA51EC1B0B05F03FF80AEE100A39EECD
:101140008A0A7E4880ED080A90ED080AD0ED050A6B
:1011500030EE600AF0EE408A794890ED030ADFED48
:101160007B0A20EE200A20EE280AB0EE408A012CED
:101170000BD1724880ED098A90ED090ADFED740AFF
:1011800030EE600A80ED090A04E09FED720A6B48B8
:1011900080ED090A0120BDEC0A8B10BD10B52DEDC4
:1011A0000A8B04466C4890ED070AD0ED020A30EE37
:1011B000600AB0EE409A694890ED000A20EE090AF4
:1011C000F0EE409A644890ED050A6448D0ED020ABA
:1011D00020EE200A10EE101A084605F06DFD41ECD5
:1011E000100BB0EE40CAF0EE60CA9FED560B53EC08
:1011F000102B51EC1C0B05F09FFA41EC100BB0EEDC
:1012000040BAF0EE60BA51EC1B0B04F0D5FF0AEEC9
:10121000100A39EE8A0A504880ED080A90ED080A53
:10122000D0ED050A30EE600AF0EE408A4B4890EDB2
:10123000030ADFED460A20EE200A20EE280AB0EE6F
:10124000408A012C03D1444880ED098A04E09FEDD7
:10125000410A414880ED090A0120BDEC0A8B10BD0E
:101260002DE9F04F85B0834640F2FF10009000203A
:101270008DF808008DF8090008208DF80A0036481E
:1012800090ED090ABDEEC00A10EE100A04B22B4818
:1012900090ED090ABDEEC00A10EE100A05B2304802
:1012A000844201DA044604E041F29410844200DDF5
:1012B00004462B48854201DA054604E041F29410C9
:1012C000854200DD0546BBF1010F07D1C5F30726B6
:1012D000EFB2C4F3072804F0FF0903E0002600275B
:1012E000B046B1468DF80B808DF80C908DF80D60EE
:1012F0008DF80E7000218DF80F108DF810108DF8FC
:1013000011108DF812106946164800F0EFFD1649CD
:1013100008704FF0000A03E00AF101001FFA80FA9A
:10132000114801780F4800F079FE012802D0BAF187
:10133000FF0FF1D1012005B0BDE8F08F540200206D
:101340005C0000207B14AE47E17A843F0AD7233C3F
:1013500000002F44000000007C02002074000020E8
:101360006CEEFFFF006400408C00002070472DE908
:10137000F04387B00646894615461F464FF4007075
:10138000009000208DF808008DF8090008208DF8E5
:101390000A00012E26D1002421E009EB840090ED03
:1013A000000ABDEEC00A10EE100A00B205A921F82D
:1013B000140005A830F81400C0F30721002000EB4A
:1013C00044020DF10B00815405A810F814100120FF
:1013D00000EB44020DF10B008154601C44B2042C5C
:1013E000DBDB33E0022E1FD100208DF80B00002143
:1013F0008DF80C108DF80D108DF80E108DF80F1063
:101400008DF810108DF811108DF81210C7F3072108
:1014100000EB45020DF10B008154012000EB450269
:101420000DF10B00875411E000208DF80B00002116
:101430008DF80C108DF80D108DF80E108DF80F1022
:101440008DF810108DF811108DF812106946E248D1
:1014500000F04CFDE14908704FF0000803E008F18E
:1014600001001FFA80F8DD480178DB4800F0D6FD66
:10147000012802D0B8F1FF0FF1D107B0BDE8F08329
:10148000F0B52DED0A8B89B006460F46002473E1B6
:10149000D34800EB840090ED000AD24800EB8400B2
:1014A000D0ED000A30EE600ACF4800EB840080EDFA
:1014B000000ACD4800EB840090ED000AB5EEC00AAA
:1014C000F1EE10FA05DDC84800EB840090ED000A4B
:1014D00006E0C54800EB840090ED000AB1EE400A3A
:1014E000DFEDC20AB4EEE00AF1EE10FA34DDBE48D8
:1014F00000EB840090ED000AB5EEC00AF1EE10FAA0
:1015000015D2B74800EB840090ED000ADFEDB80A71
:1015100030EE200AB34800EB8400D0ED000A30EE34
:10152000600AB14800EB840080ED000A14E0AC488A
:1015300000EB840090ED000AAA4800EB8400D0ED97
:10154000000A30EE600ADFEDAA0A30EE600AA64813
:1015500000EB840080ED000AA14800EB840090EDD0
:10156000000AA04800EB840080ED000A9E4800EBD2
:10157000840090ED000A04EB84009E4901EBC0005A
:101580009D4991F9001000EB810080ED000A9FED6C
:101590009B0A01A800EB840080ED000A002516E0FC
:1015A00004EB8400934901EBC00000EB850090ED53
:1015B000000A01A800EB8400D0ED000A30EE200AFA
:1015C00001A800EB840080ED000A681C45B20A2DDA
:1015D000E6DB01A800EB840090ED000AF2EE040ABD
:1015E00080EE201A804800EB840080ED001A7E48CF
:1015F00000EB840090ED000AB5EEC00AF1EE10FA9F
:1016000005DD794800EB840090ED000A06E076489D
:1016100000EB840090ED000AB1EE400A10EE101AC3
:10162000084605F049FB41EC190B9FED750B53EC97
:10163000102B05F045F806D89FED700A6A4800EBBC
:10164000840080ED000A704800EBC40090ED010AB0
:101650006D4800EBC40080ED000A06EB840090EDBD
:10166000000A614800EB8400D0ED000A30EE600A09
:10167000654800EBC40080ED010A634800EBC4003C
:1016800090ED010A10EE101A084605F015FB41EC2A
:10169000100BB0EE40AAF0EE60AA5C4890ED000A94
:1016A00010EE101A084605F007FB41EC100BB0EEE7
:1016B00040CAF0EE60CA9FED560B53EC102B51EC74
:1016C0001C0B05F039F841EC100BB0EE40BAF0EE0F
:1016D00060BA53EC1A2B51EC1B0B05F02DF841ECC2
:1016E000100BB0EE409AF0EE609A51EC190B04F03A
:1016F00063FD08EE100A444800EBC40090ED010AB7
:10170000414800EBC400D0ED000A30EE600A3F48CB
:10171000D0ED020A60EE208A38EE280A05A800EB18
:10172000840080ED000A05A800EB840090ED000A1B
:10173000DFED390AB4EEE00AF1EE10FA07DD9FEDB5
:10174000360A05A800EB840080ED000A12E005A827
:1017500000EB840090ED000ADFED300AB4EEE00A01
:10176000F1EE10FA06D29FED2D0A05A800EB8400D9
:1017700080ED000A601C44B2042CFFF689AE1E48BE
:1017800090F90000401C0A2190FBF1F201FB1200CD
:1017900040B2194908702248B0F9000014280ADA4A
:1017A0001F480088401C00B21D490880002009B075
:1017B000BDEC0A8BF0BD37B900231A4605A91846BF
:1017C000FFF7D5FD05E000231A4605A90120FFF724
:1017D000CEFD0120EBE70000006400408C000020FB
:1017E000D4020020E4020020F402002000803B45E7
:1017F00000F8FF4504030020AC00002000000000BA
:10180000000000000000E03FB4020020940000202F
:101810009A9999999999B93F00409C4500409CC577
:101820009200002010B5002202213C2003F02EF887
:10183000782200213C2003F029F8202201213C20BD
:1018400003F024F810BD2DE9F0412DED048B0025A7
:101850000026002703213C2003F058F88449087033
:1018600004213C2003F052F88149487007213C20B4
:1018700003F04CF87E49887008213C2003F046F8BC
:101880007B49C87005213C2003F040F87849087175
:1018900006213C2003F03AF8754948710846407823
:1018A000097840EA012000B27249734A127821F89F
:1018B00012006F48C0786E49897840EA012000B272
:1018C0006E496D4A127821F81200694840796849DA
:1018D000097940EA012001B26948674A127820F884
:1018E000121000240CE0634830F9140005446348EA
:1018F00030F914000644624830F914000744641CAF
:10190000642CF0DB642095FBF0F000EE100AB8EEDA
:10191000C00ADFED5C0A30EE600A5B4880ED000A29
:10192000642096FBF0F8404604F0B3FE41EC100B47
:10193000B0EE409AF0EE609A9FED540B53EC102BF2
:1019400051EC190B05F0CEF841EC100BB0EE408ACB
:10195000F0EE608A51EC180B04F02EFC4D49086043
:10196000642097FBF0F8404604F093FE41EC100B26
:10197000B0EE409AF0EE609A9FED470B53EC102BBF
:1019800051EC190B04F04AFC41EC100BB0EE408A0C
:10199000F0EE608A51EC180B04F00EFC4049086030
:1019A00035480078401C344908700846007864289F
:1019B00001D100200870BDEC048BBDE8F08110B5AA
:1019C000792200213C2002F061FF322003F048F927
:1019D000402201213C2002F059FF322003F040F95F
:1019E000012202213C2002F051FF322003F038F99D
:1019F00003213C2002F08AFF1D49087004213C208D
:101A000002F084FF1A49487007213C2002F07EFF53
:101A10001749887008213C2002F078FF1449C870EB
:101A200005213C2002F072FF1149087106213C207B
:101A300002F06CFF0E49487108464078097840EA88
:101A4000012000B20B4908800948C078084989780C
:101A500040EA012000B2094908800548407904495C
:101A6000097940EA012000B20549088010BD000054
:101A7000C9000020A4030020C80000206C0400203E
:101A80003405002000800143D00000200000000049
:101A900000404A40D4000020000000000060574091
:101AA000D80000200948804709480047FEE7FEE7C4
:101AB000FEE7FEE7FEE7FEE7FEE7FEE7FEE7FEE7FE
:101AC00004480549054A064B7047000037030008E3
:101AD000890100080007002000170020000F0020E7
:101AE000000F002033490143334A1160704770B53D
:101AF000002100230F22C47824B32F4C246804F45F
:101B0000E064C4F5E064C4F30721C1F10404E3B266
:101B10000A4144789C40E1B28478144021430C0788
:101B2000210E264C05786155047804F01F05012428
:101B3000AC4005786D114FF0E02606EB8505C5F841
:101B4000004109E0047804F01F040125A5401C4C65
:101B50000678761144F8265070BD1A4A0A400243AE
:101B6000154B1B1F1A60704739B1134A121D1268BA
:101B70000243114B1B1D1A6006E00F4A121D12682A
:101B800082430D4B1B1D1A607047042808D14FF08B
:101B9000E021096941F004014FF0E022116107E002
:101BA0004FF0E021096921F004014FF0E0221161BA
:101BB000704700000000FA050CED00E000E400E0D2
:101BC00080E100E080FFFF1F10B50446FE4884421C
:101BD00009D10121480601F081FA00214FF000707F
:101BE00001F07CFA08E00121880601F077FA002173
:101BF0004FF0806001F072FA10BD30B5024600204F
:101C00000023146824F002041460146844F00104F2
:101C1000146000E05B1C546814F0010F03D1A3F5BD
:101C20007F44FF3CF6D1546814F0010F01D100202D
:101C30006CE08C79012C04D1146844F080041460A9
:101C400003E0146824F080041460CC79012C04D1E2
:101C5000146844F04004146003E0146824F0400465
:101C600014600C7A012C04D1146844F02004146030
:101C700003E0146824F0200414604C7A012C04D191
:101C8000146844F01004146003E0146824F0100495
:101C900014608C7A012C04D1146844F00804146098
:101CA00003E0146824F008041460CC7A012C04D1F9
:101CB000146844F00404146003E0146824F004047D
:101CC00014608C78A407CD7844EA05640D7944EA61
:101CD00005444D7944EA05540D886D1E2C43D461AA
:101CE000146824F001041460002300E05B1C5468B5
:101CF00014F0010F03D0A3F57F44FF3CF6D15468E4
:101D000014F0010F01D0002000E0012030BD10B51B
:101D10000021837A012202FA03F1AC4A126842F0F0
:101D20000102AA4B1A60A94A1C3212688A43A74BC7
:101D30001C331A60027BCAB9A44A0C3212688A4367
:101D4000A24B0C331A604288C38842EA03439F4A7D
:101D50004032847A42F834300288838842EA03436E
:101D60009A4A4032847A02EBC4025360027B012A11
:101D700019D1964A0C3212680A43944B0C331A60FC
:101D80004288038842EA0343904A4032847A42F808
:101D90003430C288838842EA03438C4A4032847AD2
:101DA00002EBC4025360C27A3AB9884A121D126823
:101DB0008A43864B1B1D1A6006E0844A121D126876
:101DC0000A43824B1B1D1A60028932B97F4A1432C2
:101DD00012688A437D4B14331A600289012A06D1A6
:101DE0007A4A143212680A43784B14331A60427BE1
:101DF000012A06D1754A1C3212680A43734B1C3300
:101E00001A60724A126822F00102704B1A6010BD0B
:101E100000218171C171017241728172C172817040
:101E2000C1700321017102214171012101807047BC
:101E30006649096841F00101644A11601146096868
:101E400043F60E729143614A11601146096841EAF6
:101E5000002111601146096821F0010111607047ED
:101E600021B1026842F48032026003E0026822F489
:101E7000803202607047E1B1026842F08002026085
:101E80004FF4C272125842F480734FF4C27213506E
:101E90004FF4CA72125842F480734FF4CA7213504E
:101EA0004FF4D272125842F480734FF4D27213502E
:101EB0001BE0026822F0800202604FF4C2721258E6
:101EC00022F480734FF4C27213504FF4CA72125846
:101ED00022F480734FF4CA7213504FF4D272125826
:101EE00022F480734FF4D2721350704710B502463B
:101EF0000020936803F08063B3F1806F00D110E09D
:101F0000936803F00063B3F1006F01D1012008E092
:101F1000936803F08053B3F1805F01D1022000E0A9
:101F20000420042879D002F5C07303EB00131B686A
:101F300003F0010402F5C07303EB00131C600B7A7D
:101F40007BB94B7A0C8843EA445302F5C07404EB26
:101F500000142468234302F5C07404EB00142360CA
:101F600010E00B7A4C6843EAC4034C7A234302F531
:101F7000C07404EB00142468234302F5C07404EB1E
:101F8000001423608B7A03F00F038B7202F5C07389
:101F900003EB00135B6823F00F0402F5C07303EB3F
:101FA00000135C6002F5C07303EB00135B688C7A6E
:101FB000234302F5C07404EB001463608B7B1C06A2
:101FC0004B7B44EA034403E00064004000660040A9
:101FD0000B7B44EA0323CC7A234302F5C07404EB61
:101FE0000014A3608B7C1C064B7C44EA03440B7CEE
:101FF00044EA0323CC7B234302F5C07404EB0014B2
:10200000E36002F5C07303EB00131B6843F00104A7
:1020100002F5C07303EB00131C6010BD10B502463F
:10202000002321B1012907D002290FD109E09068CE
:10203000F84C00EA04030BE09068F74C00EA040354
:1020400006E09068F54C00EA040301E0002300BFBD
:1020500000BFF34C181BA34216D007DC83B16FF00E
:10206000806018180ED0022818D111E0B0F5007F5A
:1020700010D0EC4C001909D0B0F5003F0ED10BE0A8
:1020800002230DE000230BE0002309E0002307E01A
:10209000012305E0012303E0012301E0002300BF49
:1020A00000BFD8B210BD21B1012907D002290FD13C
:1020B00009E0826842F0800282600AE0826842F4AD
:1020C0000042826005E0826842F40002826000E023
:1020D00000BF00BF704710B500F5D87303EB0113C4
:1020E0001B6803F004031372137A53B900F5D87315
:1020F00003EB01131B6840F2FF7404EA53531360AF
:1021000009E000F5D87303EB01131B686FF060441E
:1021100004EAD303536000F5D87303EB01131B6883
:1021200003F00203537200F5D87303EB01135B68ED
:1021300003F00F03937200F5D87303EB01135B6890
:102140001B0AD37400F5D87303EB01139B68D37299
:1021500000F5D87303EB01139B681C0A147300F598
:10216000D87303EB01139B681C0C547300F5D873F0
:1021700003EB01139B681B0E937300F5D87303EBFD
:102180000113DB68D37300F5D87303EB0113DB682D
:102190001C0A147400F5D87303EB0113DB681C0CE4
:1021A000547400F5D87303EB0113DB681B0E9374B2
:1021B00021B9C36843F02003C36003E0036943F01F
:1021C0002003036110BD21B9C26842F02002C26041
:1021D00003E0026942F020020261704702460020DB
:1021E00019B9D36803F0030006E0012903D113698C
:1021F00003F0030000E00020704710B502460B46D4
:1022000000204FF6FF71BBB9146824F0020444F0BB
:102210000104146000E0491E546804F00304012C1A
:1022200001D00029F7D1546804F00304012C01D037
:10223000002032E0012030E0012B13D1146824F09B
:102240000304146000E0491E546814F0030F01D029
:102250000029F8D1546814F0030F01D000201CE0CD
:1022600001201AE0022B17D1146824F0010444F075
:102270000204146000E0491E546804F00304022CB8
:1022800001D00029F7D1546804F00304022C01D0D6
:10229000002002E0012000E0002010BD01460020E7
:1022A0000A6822F0010242F002020A604A6802F063
:1022B0000302022A00D10120704701464FF6FF7247
:1022C00000200B6823F002030B6000E0521E4B68F5
:1022D00003F00203022B01D1002AF7D14B6803F06F
:1022E0000203022B00D001207047014600208A69BA
:1022F00002F070007047014600208A69100E704796
:10230000014600208A69C2F3074070471AB1436949
:102310000B43436102E043698B434361704710B54F
:102320000246002011F4700F08D09369C1F3130422
:10233000234201D001202DE000202BE011F0807F0E
:1023400008D05368C1F31304234201D0012021E0D7
:1023500000201FE011F0006F08D09368C1F3130450
:10236000234201D0012015E0002013E011F0007F8E
:1023700008D0D368C1F31304234201D0012009E03F
:10238000002007E01369C1F31304234201D00120A8
:1023900000E0002010BD0022234B994202D100230F
:1023A000836111E0C1F3130211F0007F01D0C2601C
:1023B0000AE011F0806F01D0026105E011F0006FBA
:1023C00001D0826000E042607047024600200A426D
:1023D00001D0012000E00020704770B504460D4692
:1023E00000266069284272D0B5F5807F69D01DDC77
:1023F000082D42D006DC012D2DD0022D31D0042D28
:102400007FD134E0102D3ED0202D42D0402D78D108
:1024100045E0000003000004000300080000031072
:10242000000100080001FFF77000F030B5F5004F23
:1024300061D009DCB5F5007F4AD0B5F5806F4DD08D
:10244000B5F5006F5DD150E0B5F5803F2DD0B5F505
:10245000003F56D12FE0A0685549FFF7B6FF06466A
:1024600051E0E0680321FFF7B0FF06464BE0E0686B
:102470000821FFF7AAFF064645E0E0681021FFF7B4
:10248000A4FF06463FE020690321FFF79EFF0646B2
:1024900039E020690821FFF798FF064633E02069FC
:1024A0001021FFF792FF06462DE060680821FFF734
:1024B0008CFF064627E060681021FFF786FF06467E
:1024C00021E0A0690121FFF780FF06461BE01BE029
:1024D000A0690221FFF779FF064614E0A0690421F4
:1024E000FFF773FF06460EE00BE0A0697021FFF7CF
:1024F0006CFF064607E060680421FFF766FF0646AA
:1025000001E0002600BF00E00026304670BDB1F5B6
:10251000007F3AD00FDC202928D006DC01291CD00E
:1025200004291DD0082940D11DE0402921D0B1F552
:10253000807F3AD126E0B1F5004F31D006DCB1F50D
:10254000806F25D0B1F5006F2FD124E0B1F5803F29
:1025500012D0B1F5003F28D111E0154A826025E084
:102560000822C26022E01022C2601FE0082202613D
:102570001CE01022026119E00822426016E01022DD
:10258000426013E00422426010E0042242600DE049
:10259000042242600AE0002282610422426005E0D7
:1025A000002282610422426000E000BF00BF704749
:1025B00001010100016821F00101016000210160B9
:1025C00041608160C160016121214161DA49884235
:1025D00004D13D21D84A103A91608CE0D649183197
:1025E000884205D14FF47461D34A103A916082E079
:1025F000D1493031884205D14FF47411CE4A103A96
:10260000916078E0CC494831884205D14FF074613F
:10261000C94A103A91606EE0C7496031884204D1DE
:10262000C649C54A103AD16065E0C349783188424D
:1026300004D1C349C04A103AD1605CE0BE49903130
:10264000884204D1BF49BC4A103AD16053E0BA492C
:10265000A831884205D14FF03D51B74A103AD160B8
:1026600049E0B949884204D13D21B74A083A11608E
:1026700041E0B5491831884205D14FF47461B24A3E
:10268000083A116037E0B0493031884205D14FF443
:102690007411AD4A083A11602DE0AB4948318842C7
:1026A00005D14FF07461A84A083A116023E0A649A9
:1026B0006031884204D1A149A34A121F11601AE077
:1026C000A1497831884204D19D499F4A121F116067
:1026D00011E09D499031884204D19A499A4A121FCB
:1026E000116008E09849A831884204D14FF03D516B
:1026F000954A121F1160704710B500220268934B73
:102700001A40CC680B6823434C6923438C692343EC
:10271000CC6923430C6A23434C6A23438C6A2343CA
:102720004C6B23438C6B23431A430260426922F0B3
:102730000702D1E90B3423431A4342610B6943601A
:102740004B6883608B68C36010BD002101604160ED
:102750008160C160016141618161C1610162416269
:102760008162C162016341638163704721B1026884
:1027700042F00102026003E0026822F001020260FE
:10278000704721B1026842F40042026003E002682F
:1027900022F400420260704721B1026842F0200238
:1027A000026003E0026822F020020260704741608C
:1027B00070470146486880B2704722B1036843F40D
:1027C0000023036003E0036823F400230360016136
:1027D000704721B1026842F48022026003E002687F
:1027E00022F48022026070470AB1016100E0C160FA
:1027F0007047014600200A6812F4002F01D0012022
:1028000000E000207047014600200A6812F0010F26
:1028100001D0012000E000207047014600204A69F5
:1028200002F03800704730B503460A460020002405
:10283000454DAB4202D24049103901E042491039BE
:1028400012F0005F01D04C6800E00C68404D2C4055
:10285000144201D0012000E0002030BD02463A4B76
:102860009A4202D23448103801E03748103811F04B
:10287000005F03D0364B0B40C36002E0344B0B408B
:102880008360704710B511F0800F09D022B1436901
:1028900043F08003436103E0436923F08003436115
:1028A00080290BD02AB1036801F01E042343036082
:1028B00004E0036801F01E04A343036010BD70B57B
:1028C00002460020002400251F4EB24202D21A4BBD
:1028D000103B01E01C4B103B1E4E314206D01E2621
:1028E00006EAD124166806EA040502E0566906F0F5
:1028F000800511F0005F01D05C6800E01C68144E98
:1029000034400C4202D00DB1012000E0002070BD27
:1029100002460D4B9A4202D20748103801E00A489D
:10292000103811F0005F03D0094B0B40C36002E088
:10293000074B0B4083607047106002403D00002051
:10294000400F002000003D20106402403F801CF03A
:102950007D0F7D0F3C0F3C0F10B504469848844214
:1029600008D10121084600F086FB0021012000F07B
:1029700082FB76E09348844208D10121022000F0D6
:102980007AFB0021022000F076FB6AE08E48844248
:1029900008D10121042000F06EFB0021042000F08A
:1029A0006AFB5EE08948844208D10121082000F0DA
:1029B00062FB0021082000F05EFB52E08448844264
:1029C00008D10121102000F056FB0021102000F05A
:1029D00052FB46E07F48844208D10121202000F0CC
:1029E0004AFB0021202000F046FB3AE07A4884426E
:1029F00008D10121402000F03EFB0021402000F0E2
:102A00003AFB2EE07548844208D10121802000F075
:102A100032FB0021802000F02EFB22E0704884422F
:102A200008D10121801500F026FB0021A01500F03F
:102A300022FB16E06B48844208D10121401500F0CA
:102A40001AFB0021601500F016FB0AE0664884427C
:102A500007D10121001500F00EFB0021201500F028
:102A60000AFB10BDF0B50A4600210023002400BF78
:102A70003DE0012505FA01F3156805EA03049C42CF
:102A800034D105684F000326BE40B5430560157973
:102A90004E00B5400668354305601579012D02D01A
:102AA0001579022D16D185684F000326BE40B54327
:102AB000856055794E00B540866835438560456828
:102AC00001268E40B5434560456896798E40B6B282
:102AD00035434560C5684F000326BE40B543C56019
:102AE000D5794E00B540C6683543C560491C1029EC
:102AF000BFD3F0BD4FF6FF7101600021017141713C
:102B00008171C171704708B54FF480320092009A0C
:102B10000A430092009AC261C161009AC261C2690F
:102B20000092C269009208BD0246002013690B4260
:102B300001D0012000E0002070470146086980B202
:102B400070470246002053690B4201D0012000E08B
:102B5000002070470146486980B270470183704782
:102B6000418370470AB1018300E0418370474161AE
:102B7000704742694A4042617047F0B50023002423
:102B80004D07ED0E02FA05F3CE1000F1200555F8C1
:102B900026504E07F70E0F26BE40B543CF1000F16A
:102BA000200646F82750CE1000F1200555F8265093
:102BB00045EA0304CE1000F1200545F82640F0BD9B
:102BC000000002400004024000080240000C0240E5
:102BD000001002400014024000180240001C024095
:102BE000002002400024024000280240F94800680A
:102BF00040F00100F74908600020F64908310860FC
:102C0000F4480068F4490840F2490860F348091D97
:102C10000860F348EF4984310860F0481038091D16
:102C20000860EC48006820F48020EA490860002031
:102C3000E8490C310860E7498C3108607047002191
:102C4000E44A921C117011460870704710B5014695
:102C50000022002300204A11012A02D1DD4C236802
:102C600008E0022A03D1DB4C7034236802E0D94C1F
:102C70007434236801F01F02012494401C4201D0E7
:102C8000012000E0002010BD38B500200090002495
:102C9000002500BF3120FFF7D9FF05460098401CF2
:102CA00000900098B0F5A04F01D0002DF2D0312057
:102CB000FFF7CCFF08B1012400E00024204638BD16
:102CC00001460020C34A106820F0F80040EAC10025
:102CD00010607047C349086070470021BD4A7032D8
:102CE00011701170012802D004280AD104E00121DA
:102CF000B84A7032117005E00521B64A7032117081
:102D000000E000BF00BF7047B7490860704770B56A
:102D1000049C41EA82150126C6EB530645EA0645A6
:102D2000054345EA0465AB4E361D356070BDAD49BF
:102D300008667047820142EA0172A64B84331A602A
:102D40007047A8498866704710B5830143EA01635C
:102D500043EA02739F4C8834236010BDA149086781
:102D60007047A049C864704702460020994B083359
:102D7000186820F0EC6042EA01031843954B0833D1
:102D80001860704702460020924B0833186820F004
:102D9000784042EA010318438E4B083318607047AD
:102DA000014600208B4A0832106820F003000843D7
:102DB0001060704787480830006800F00C007047CA
:102DC00001460020834A0832106820F0F0000843D2
:102DD00010607047014600207E4A0832106820F4D7
:102DE000E05008431060704701460020794A0832DD
:102DF000106820F4604040EAC10010607047F0B5F0
:102E0000002100220024022500260223714F0837EA
:102E10003F6807F00C0121B1042905D0082937D1FA
:102E200005E0724F076036E0714F076033E0694F8D
:102E30003F1D3F68C7F38056664F3F1D3F6807F050
:102E40003F036EB16A4FB7FBF3F7DFF888C10CF1AF
:102E5000040CDCF800C0CCF3881C07FB0CF40CE07D
:102E6000624FB7FBF3F7DFF86CC10CF1040CDCF830
:102E700000C0CCF3881C07FB0CF4564F3F1D3F6885
:102E8000C7F301477F1C7D00B4FBF5F7076002E044
:102E9000564F076000BF00BF4E4F08373F6807F02E
:102EA000F0010909534F7A5C0768D7404760494FE2
:102EB00008373F6807F4E051890A4E4F7A5C47684B
:102EC000D7408760434F08373F6807F46041490B9C
:102ED000484F7A5C4768D740C760F0BD002100F4D6
:102EE0004072B2F5407F0AD13A4A0832116821F4A3
:102EF000F811414A02401143364A08321160354AFE
:102F000070321268C0F30B031A43324B70331A60ED
:102F10007047354944390860704733494039086083
:102F2000704736490860704701460020294A8C32B4
:102F3000106820F01F004A1E1043264A8C32106091
:102F4000704701460020234A8C32106820F4F85064
:102F50004A1E40EA02201F4A8C3210607047014628
:102F600000201C4A8C32106820F440100843106086
:102F7000704701460020174A8C32106820F4400048
:102F800008431060704701460020124A8C321068D6
:102F900020F44030084310607047194908607047BA
:102FA00039B10C4A3032126802430A4B30331A608E
:102FB00006E0084A303212688243064B30331A600A
:102FC0007047F9B1034A343212680243014B34337B
:102FD0001A601CE000380240FFFFF6EA10300024BF
:102FE0000030002000004742800E47420024F400D9
:102FF00000127A00DC000020FFFCFF0F5C0147425A
:10300000E01147428F4A126882438E4B1A60704724
:1030100039B18C4A121D126802438A4B1B1D1A607B
:1030200006E0884A121D12688243864B1B1D1A60F7
:10303000704739B1834A0C3212680243814B0C331A
:103040001A6006E07F4A0C32126882437D4B0C33D3
:103050001A60704739B17B4A103212680243794BCB
:1030600010331A6006E0774A103212688243754BBB
:1030700010331A60704739B1724A243A1268024319
:10308000704B243B1A6006E06E4A243A1268824371
:103090006C4B243B1A60704739B16A4A203A126877
:1030A0000243684B203B1A6006E0664A203A1268E9
:1030B0008243644B203B1A60704739B1614A1C3A25
:1030C000126802435F4B1C3B1A6006E05D4A1C3AE3
:1030D000126882435B4B1C3B1A60704739B1594AF6
:1030E000143A12680243574B143B1A6006E0554AE3
:1030F000143A12688243534B143B1A60704739B13B
:10310000504A103A126802434E4B103B1A6006E0D8
:103110004C4A103A126882434A4B103B1A6070477F
:1031200039B1484A1C3212680243464B1C331A60BC
:1031300006E0444A1C3212688243424B1C331A6038
:10314000704739B13F4A2032126802433D4B203369
:103150001A6006E03B4A203212688243394B203322
:103160001A60704739B1374A243212680243354B2E
:1031700024331A6006E0334A243212688243314B0A
:1031800024331A60704739B12E4A2C321268024338
:103190002C4B2C331A6006E02A4A2C3212688243E8
:1031A000284B2C331A60704739B1264A30321268E6
:1031B0000243244B30331A6006E0224A3032126850
:1031C0008243204B30331A607047012808D11D49D3
:1031D0003C31096841F008011A4A3C32116007E0AD
:1031E00018493C31096821F00801164A3C32116047
:1031F000704739B1134A273A12780243114B273BE3
:103200001A7006E00F4A273A127882430D4B273B8B
:103210001A7070470B484030006840F080700949D0
:1032200040310860704701460020064A283A12687B
:103230000A4201D0012000E00020704701492639F0
:10324000087070473438024010B50446FE48844286
:1032500008D101210846FFF752FF00210120FFF7A6
:103260004EFF9DE0B4F1804F08D101210846FFF7E1
:1032700035FF00210120FFF731FF91E0F348844240
:1032800008D101210220FFF729FF00210220FFF7CA
:1032900025FF85E0EE48844208D101210420FFF794
:1032A0001DFF00210420FFF719FF79E0E94884425F
:1032B00008D101210820FFF711FF00210820FFF7A6
:1032C0000DFF6DE0E448844208D101211020FFF792
:1032D00005FF00211020FFF701FF61E0DF48844275
:1032E00008D101212020FFF7F9FE00212020FFF75F
:1032F000F5FE55E0DA48844208D101210220FFF7AB
:10330000FEFE00210220FFF7FAFE49E0D548844284
:1033100009D101210804FFF7F2FE00214FF48030AB
:10332000FFF7EDFE3CE0D048844209D1012148047A
:10333000FFF7E5FE00214FF40030FFF7E0FE2FE03D
:10334000CA48844209D101218804FFF7D8FE002130
:103350004FF48020FFF7D3FE22E0C548844208D115
:1033600001214020FFF7BAFE00214020FFF7B6FE02
:1033700016E0C048844208D101218020FFF7AEFE4C
:1033800000218020FFF7AAFE0AE0BB48844207D153
:1033900001218015FFF7A2FE0021A015FFF79EFE78
:1033A00010BD00220288A84B98420ED0AC4B984228
:1033B0000BD0B0F1804F08D0A44B984205D0A44B5D
:1033C000984202D0A34B984204D14FF68F731A4013
:1033D0004B881A43A04B984207D0A04B984204D088
:1033E0004FF6FF431A400B891A4302804B68C362B1
:1033F0000B880385944B984202D0994B984201D197
:103400008B7A03860123838270474FF0FF3141603E
:103410000021018001814180817270470185828293
:1034200070470A46002101884FF68F7319401143F7
:103430000180704741627047C16270470146486A27
:1034400070470146088D704721B1028842F00202A0
:10345000028004E002884FF6FD731A400280704734
:1034600021B1028842F00402028004E002884FF693
:10347000FB731A400280704721B1028842F080023B
:10348000028004E002884FF67F731A400280704782
:1034900002884FF6F7731A40028002880A430280BE
:1034A000704702884FF6FF431A40028002880A43A1
:1034B0000280704721B1028842F00102028004E0DC
:1034C00002884FF6FE731A400280704770B50024E0
:1034D00000220023058C4FF6FE7635400584028CD1
:1034E0008388048B4FF68F752C40B51E2C400D88B9
:1034F0002C43751E2A408D892A434D882A43524DFC
:10350000A84202D0564DA84213D14FF6F7752A4073
:10351000CD892A434FF6FB752A408D882A434FF602
:10352000FF652B404FF6FF552B400D8A2B434D8AEC
:103530002B43838004838D684563028470BD70B51E
:10354000002400220023058C4FF6EF7635400584D9
:10355000028C8388048B48F6FF752C404FF6FF459C
:103560002C400D884FF6FF7606EA05252C434FF6D2
:10357000DF752A408D8906EA05152A434D8806EA3B
:1035800005152A43304DA84202D0354DA8421DD121
:103590004FF67F752A40CD894FF6FF7606EA05156E
:1035A0002A434FF6BF752A408D8806EA05152A433F
:1035B0004FF6FF352B404FF2FF752B400D8A06EA80
:1035C00085052B434D8A06EA85052B4383800483BA
:1035D0008D688563028470BD70B5002400220023CD
:1035E000058C4FF6FF6635400584028C8388848BFA
:1035F0004FF68F752C404FF6FC752C400D882C43F0
:103600004FF6FF552A408D894FF6FF7606EA0525CD
:103610002A434D8806EA05252A430B4DA84202D0CD
:103620000F4DA84238D14FF2FF752A40CD894FF691
:10363000FF7606EA05252A434FF6FF352A408D8896
:1036400006EA05252A4319E0000001400004004075
:1036500000080040000C0040001000400014004032
:103660000004014000400140004401400048014086
:1036700000180040001C0040002000404EF6FF757E
:103680002B404DF6FF752B400D8A06EA05152B439E
:103690004D8A06EA05152B43838084838D68C563B4
:1036A000028470BD70B5002200230024058C4EF604
:1036B000FF7635400584038C8488828B48F6FF753D
:1036C0002A404FF6FF452A400D884FF6FF7606EA5E
:1036D00005252A434DF6FF752B408D8906EA0535F1
:1036E0002B434D8806EA05352B43FE4DA84202D0F8
:1036F000FD4DA84208D14BF6FF752C400D8A4FF6C0
:10370000FF7606EA85152C43848082838D680564E4
:10371000038470BD002101804180818081608181AE
:10372000C18101824182704770B5034600200024A8
:103730001846183001258D40ACB21D8CA5431D8460
:1037400009B108290AD100EB610005684FF68F76B0
:10375000354005600568154305600FE00D1FC5F392
:103760004E052844056848F6FF7635400560056833
:103770004FF6FF7606EA02263543056070BD4163C9
:10378000704781637047C1637047016470470A46A0
:103790000021018B4FF68F7319401143018370474D
:1037A0000A460021018B48F6FF7319404FF6FF735C
:1037B00003EA02231943018370470A460021818BE3
:1037C0004FF68F7319401143818370470A460021D9
:1037D000818B48F6FF7319404FF6FF7303EA02230B
:1037E0001943818370470A460021018B4FF6F77316
:1037F00019401143018370470A460021018B4FF2A3
:10380000FF7319404FF6FF7303EA02231943018344
:1038100070470A460021818B4FF6F7731940114318
:10382000818370470A460021818B4FF2FF73194054
:103830004FF6FF7303EA02231943818370470A4658
:103840000021018B4FF6FB73194011430183704730
:103850000A460021018B4FF6FF3319404FF6FF73E4
:1038600003EA02231943018370470A460021818B32
:103870004FF6FB7319401143818370470A460021BC
:10388000818B4FF6FF3319404FF6FF7303EA022393
:103890001943818370470A460021018B4FF67F73DD
:1038A00019401143018370470A460021018BC1F37F
:1038B0000E014FF6FF7303EA022319430183704799
:1038C0000A460021818B4FF67F7319401143818393
:1038D00070470A460021818BC1F30E014FF6FF733A
:1038E00003EA02231943818370470A460021018CB1
:1038F0004FF6FD7319401143018470470A460021B9
:10390000018C4FF6F77319401143018470470A4642
:103910000021018C4FF6DF7319404FF6FF7303EA65
:1039200002131943018470470A460021018C4FF6A7
:103930007F7319404FF6FF7303EA021319430184A2
:1039400070470A460021018C4FF6FF5319404FF68D
:10395000FF7303EA02231943018470470A460021DA
:10396000018C4FF2FF7319404FF6FF7303EA0223F5
:103970001943018470470A460021018C4DF6FF73FC
:1039800019404FF6FF7303EA02331943018470476D
:1039900030B5002301248C40A3B2048C9C430484E2
:1039A000048C02FA01F5ADB22C43048430BD30B56D
:1039B000002304248C40A3B2048C9C430484048C14
:1039C00002FA01F5ADB22C43048430BD828B4FF274
:1039D000FF331A408283828B4FF6FF7303EA012381
:1039E0001A4382837047F0B50C4615460021002229
:1039F0000026078C4EF6FF7C07EA0C070784818BB4
:103A0000028C4FF6FF7707EA043640F6FF4739404D
:103A10004FF6FF7707EA052739434FF6FF7707EAA6
:103A20000337394345F6FF773A4046F480573A4327
:103A300081830284F0BD828B4FF6F3731A40828338
:103A4000828B0A4382837047F0B50C4615460021ED
:103A500000220026078C4FF6FF6C07EA0C0707844C
:103A6000818B028C4FF6FF7707EA04264FF60C771E
:103A700039404FF6FF7707EA03172F4339434FF2D8
:103A8000FF573A4046F480773A4381830284F0BD81
:103A9000028B4FF2FF331A400283028B4FF6FF7303
:103AA00003EA01231A4302837047F0B50C4615461A
:103AB000002100220026078C4FF6EF7C07EA0C0756
:103AC0000784018B028C4FF6FF7707EA041640F655
:103AD000FF4739404FF6FF7707EA033739434FF680
:103AE000FF7703E0000001400004014007EA0527DA
:103AF00039434FF65F773A4046F010073A43018367
:103B00000284F0BD028B4FF6F3731A400283028BDE
:103B10000A4302837047F0B50C4615460021002287
:103B2000068C4FF6FE773E400684018B028C4FF6E2
:103B30000C7631407E1C06EA03162E4331434FF6C5
:103B4000F576324044F00106324301830284F0BD31
:103B500070B505460C46208850B92389A288618833
:103B60002846FFF7D8FFE1882846FFF7CBFF25E07E
:103B7000208804280AD12389A28861882846FFF773
:103B800094FFE1882846FFF783FF17E02088082884
:103B90000AD12389A28861882846FFF755FFE1886A
:103BA0002846FFF748FF09E02389A2886188284654
:103BB000FFF719FFE1882846FFF708FF70BD0021D5
:103BC00001804180012181800021C18001817047F5
:103BD0002DE9F04105460C4600260127608808B90A
:103BE000022600E00026A088012801D1022700E07B
:103BF00001272088A0B92389A28861882846FFF779
:103C00008AFFE1882846FFF77DFF23893A4631463F
:103C10002846FFF74AFFE1882846FFF739FF13E0FF
:103C20002389A28861882846FFF73FFFE18828465C
:103C3000FFF72EFF23893A4631462846FFF76BFFF0
:103C4000E1882846FFF75EFFBDE8F0810146486B3A
:103C500070470146886B70470146C86B7047014644
:103C6000086C70470A884B881A438B881A43CB88A4
:103C70001A430B891A434B891A438B891A43A0F8BC
:103C8000442070470021018041808180C1800181F2
:103C900041818181704731B1B0F8442042F4004243
:103CA000A0F8442005E0B0F84420C2F30E02A0F8CA
:103CB0004420704721B1828842F00402828004E0EF
:103CC00082884FF6FB731A408280704721B1828848
:103CD00042F00102828004E082884FF6FE731A40AF
:103CE000828070471AB183890B43838102E0838904
:103CF0008B43838170478182704702460020138A7C
:103D00000B4201D0012000E000207047CA4302822C
:103D1000704730B50246002000230024158A05EACA
:103D20000103958905EA010413B10CB1012000E0FB
:103D3000002030BDCA430282704741EA0203A0F866
:103D4000483070471AB183890B43838102E083892D
:103D50008B438381704721B1828842F008028280C0
:103D600004E082884FF6F7731A4082807047018919
:103D70004FF6F8721140018170470A46002101890F
:103D80004FF68F73194011430181704730B50446D7
:103D90000D4629462046FFF7F0FF208940F0070036
:103DA000208130BD2DE9F04104460D4616461F46E0
:103DB000602D06D13B46012231462046FFF775FEB5
:103DC00005E03B46012231462046FFF7A4FE294686
:103DD0002046FFF7D2FF208940F007002081BDE890
:103DE000F08130B50C4600210189C9B24FF6FF754C
:103DF00005EA0325154325432943018130BD2DE9FB
:103E0000F04105460E4617469846002443463A467A
:103E100031462846FFF7E5FF2C894FF6F87004403D
:103E200044F007044FF68F70044044F070042C8176
:103E3000BDE8F081F0B504460D4616461F463B46E8
:103E4000324629462046FFF7CCFF208940F48040C7
:103E50002081F0BD82884FF68F731A40828082885D
:103E60000A438280704702894FF6F8731A40028134
:103E700002890A430281704702894FF67F731A4014
:103E8000028102890A4302817047F0B50C4615464B
:103E90001E460021002200230189028B038C4FF66D
:103EA000F877394021434FF6FC473A4040F201177A
:103EB0003A434FF6DD773B404FF6FF7707EA0617A8
:103EC0002F433B43018102830384F0BD21B18288EB
:103ED00042F08002828004E082884FF67F731A40AD
:103EE00082807047A0F850107047000010B504465B
:103EF000FA48844208D101211020FFF700F900217F
:103F00001020FFF7FCF857E0F548844209D1012161
:103F10004804FFF7E3F800214FF40030FFF7DEF824
:103F20004AE0F048844209D101218804FFF7D6F81D
:103F300000214FF48020FFF7D1F83DE0EA488442A9
:103F400009D10121C804FFF7C9F800214FF400206E
:103F5000FFF7C4F830E0E548844209D101210805A3
:103F6000FFF7BCF800214FF48010FFF7B7F823E00B
:103F7000DF48844208D101212020FFF7C0F800214A
:103F80002020FFF7BCF817E0DA48844209D101216C
:103F90008807FFF7A3F800214FF08040FFF79EF855
:103FA0000AE0D548844207D101214005FFF796F881
:103FB00000216005FFF792F810BD2DE9FF47054687
:103FC0000E460024A14600BFA046B08900B100BF44
:103FD0002C8A24F44054F08804432C82AC8941F2AA
:103FE0000C608443B08831890843718908430443D5
:103FF000AC81AC8A24F44074B0890443AC82684636
:10400000FEF7FDFEB548854202D0B948854202D18F
:10401000DDF80C9001E0DDF80890A88910F4004F5D
:1040200008D009EBC90000EB091031684900B0FB6A
:10403000F1F707E009EBC90000EB091031688900CE
:10404000B0FBF1F76420B7FBF0F004012009642114
:1040500001FB1078A88910F4004F08D0322000EB43
:10406000C800B0FBF1F000F00700044308E0322084
:1040700000EB08106421B0FBF1F000F00F000443E6
:104080002C81BDE8FF874FF416510160002181802B
:10409000C18001810C21418100218181704710B5CF
:1040A00002460020108A20F470600B884C8823435D
:1040B0008C882343CC8823431843108210BD0021F1
:1040C000018041808180C180704721B1828942F4A2
:1040D0000052828104E082894DF6FF731A4082818A
:1040E0007047028B02F47F420283028B0A430283F1
:1040F000704721B1828942F40042828103E08289C3
:10410000C2F30E028281704721B1828A42F40062BA
:10411000828204E0828A4FF2FF731A4082827047E3
:10412000C1F308028280704701468888C0F3080006
:104130007047028A4FF6F0731A400282028A0A43DD
:104140000282704721B1828942F00202828104E03A
:1041500082894FF6FD731A408281704782894FF23F
:10416000FF731A40828182890A4382817047028AE2
:104170004FF6DF731A400282028A0A4302827047B6
:1041800021B1028A42F48042028204E0028A4BF6A4
:10419000FF731A4002827047818941F001018181D9
:1041A000704721B1828A42F00802828204E0828A4A
:1041B0004FF6F7731A4082827047028BD2B20283A5
:1041C000028B42EA01220283704721B1828A42F0C7
:1041D0002002828204E0828A4FF6DF731A408282D4
:1041E000704721B1828A42F01002828204E0828A02
:1041F0004FF6EF731A4082827047828A4FF6FB7344
:104200001A408282828A0A438282704721B1828A5E
:1042100042F00202828204E0828A4FF6FD731A4065
:10422000828270471AB1838A0B43838202E0838AB9
:104230008B4383827047F0B5034600240026002597
:104240000020A1F510676A3F00D100BF1846C1F3F6
:10425000421401F01F06012707FA06F5012C01D1CF
:104260000C3004E0022C01D1103000E014301AB1FF
:1042700007682F43076002E00768AF430760F0BD9F
:1042800002460020B1F5007F00D100BF13880B4229
:1042900001D0012000E00020704701F40072B2F567
:1042A000007F00D100BFCA430280704770B502464C
:1042B0000024002300250020A1F510666A3E00D1ED
:1042C00000BFC1F3421501F01F03012606FA03F3F4
:1042D000012D13D19689334017E0000000100140F2
:1042E0000044004000480040004C004000500040A6
:1042F0000014014000780040007C0040022D02D1F3
:10430000168A334001E0968A33400C12012606FAE1
:1043100004F41688344013B10CB1012000E00020F1
:1043200070BD10B500220023A1F510646A3C00D1D5
:1043300000BF0A1201249440A3B2DC43048010BDE4
:1043400000B597B00121CE48FEF72AFE012188046E
:10435000FEF76FFE07220A21CA48FEF70EFC07226D
:104360000B21C848FEF709FC4FF440601190022071
:104370008DF8480000208DF84A0003208DF8490090
:1043800000208DF84B0011A9BE48FEF76BFB4FF4DF
:10439000165013900020ADF85000ADF85200ADF863
:1043A00054000C20ADF856000020ADF8580013A9B9
:1043B000B548FFF702FE01224021B348FFF732FF64
:1043C0000121B148FFF781FE0C208DF8400000204C
:1043D0008DF8410003208DF8420001208DF8430044
:1043E00010A8FDF784FBA948FEF7E4F84FF0006041
:1043F0000190A548001D0290A5480390002004905C
:1044000020200590002006904FF480600790002047
:10441000089009904FF480700A904FF440300B9050
:1044200000200C900D900E900F9001A99748FEF778
:1044300063F901219548FEF799F917B000BD93493A
:104440002839896A21F00101904A283A91629049FD
:1044500051632021D162002004E000218C4A1154D4
:10446000411C88B22028F8DB00218A4A91805180C3
:10447000D180117085492839896A41F00101834A48
:10448000283A916270470146814800788A284DD1C8
:104490007F4840788B2849D17D4880781C2845D1B9
:1044A0007B48C078AE2841D179484279007902EB47
:1044B000002000EE100AB8EEC00A81ED030A74482D
:1044C000C279807902EB002000EE100AB8EEC00A33
:1044D00081ED040A6E48427A007A02EB002000EE79
:1044E000100AB8EEC00A81ED050A6948C27A807ADE
:1044F00002EB002000EE100AB8EEC00A81ED000ABF
:104500006348427B007B02EB002000EE100AB8EE0D
:10451000C00A81ED010A5E48C27B807B02EB00206D
:1045200000EE100AB8EEC00A81ED020A01207047C1
:1045300010B503460C461E205649488008460078B0
:1045400048B90846408800282BDD0120087008463D
:104550004088888025E04F480078012821D14D48C7
:1045600040884C49898888420FD14A48C088401CFD
:104570004849C8800846C088984201DB022008707C
:1045800044484088434988800BE04248408841497C
:104590008988884205DD00203E49C8800846408859
:1045A00088803C480078022804D12046FFF76BFF42
:1045B000FFF745FF012010BDF0B589B00646882001
:1045C0008DF80400A1208DF805001C208DF8060050
:1045D000002421E006EB8400C178002000EB840079
:1045E000C01C01AA115406EB84008178012000EB65
:1045F0008400C01C115406EB84004178022000EBBB
:104600008400C01C115416F82410032000EB840011
:10461000C01C1154601C84B2042CDBDB002505E0B7
:1046200001A8405D3844C7B2681C85B21F2DF7DB76
:104630008DF8237000250CE000BF1348008810F0AF
:10464000400FFAD001A8415D0F48FFF769FD681CD3
:1046500085B2202DF0DB09B0F0BD10B5044600BFD7
:104660000D48008810F0400FFAD021460A48FFF7A5
:1046700057FD00BF0848008810F0400FFAD010BD69
:104680000200200000040240004800402860024070
:10469000FC050020EC000020001001401CB50121A9
:1046A0000220FEF77DFC4FF44070009001208DF851
:1046B00004008DF805008DF8060000208DF8070035
:1046C0006946A648FEF7CEF91CBD062000BF0100D2
:1046D000A0F10100FBD1704741F2883000E0401E9C
:1046E0000028FCD1704700B501209D4908609D4914
:1046F000C1F8A002FFF7E9FF9B48006808B9002055
:1047000000BD002096490860FFF7DFFF9548D0F80C
:10471000240208B10020F3E7002091490860FFF768
:10472000D4FF0120ECE700B5002090490860FFF7B6
:10473000CCFF00208B49C1F8A402FFF7C6FF01207F
:104740008A490860FFF7C1FF01208649C1F8A40229
:10475000FFF7BBFF00BD00B5002084490860FFF7EC
:10476000B4FF00207F49C1F8A402FFF7AEFF01208B
:104770007E490860FFF7A9FF00207A49C1F8A0022E
:10478000FFF7A3FF00BD00B5002078490860FFF7E0
:104790009CFF01207349C1F8A402FFF796FF012096
:1047A00072490860FFF791FF00206E49C1F8A0022E
:1047B000FFF78BFF00BD00B500206C490860FFF7D4
:1047C00084FF01206749C1F8A402FFF77EFF0120A2
:1047D00066490860FFF779FF6248D0F8240230B1DB
:1047E000002062490860FFF770FF002000BD002034
:1047F0005E490860FFF769FF0120F7E710B503463F
:10480000082419E0002059490860FFF75EFF13F003
:10481000800F03D001205249086002E00020504977
:1048200008604FEA43604FEA1063FFF74EFF012034
:104830004E490860FFF749FF2000A4F10101CCB206
:10484000E0D14A49086010BD10B5082400230120BA
:104850004349086011E05806030E002043490860F0
:10486000FFF733FF01203F49C1F8A002FFF72DFFFA
:104870003D48006808B143F001032000A4F10101A4
:10488000CCB2E8D139490860184610BD70B506466B
:104890000C461546FFF727FF08B9002070BD3046CB
:1048A000FFF7ACFFFFF787FF18B9FFF73CFF0020C9
:1048B000F4E72046FFF7A2FFFFF77DFF2846FFF74A
:1048C0009DFFFFF778FFFFF72EFFFFF705FF0120A1
:1048D000E4E730B505460C46FFF705FF08B90020B0
:1048E00030BD2846FFF78AFFFFF765FF18B9FFF7CD
:1048F0001AFF0020F4E72046FFF780FFFFF75BFF79
:10490000FFF711FFFFF7E8FE0120E9E770B5044665
:104910000D46FFF7E8FE08B9002070BD2046FFF7FE
:104920006DFFFFF748FF18B9FFF7FDFE0020F4E721
:104930002846FFF763FFFFF73EFFFFF7D4FE611C39
:10494000C8B2FFF75BFFFFF736FFFFF77DFF0646B4
:10495000FFF719FFFFF7E7FE3046DEE700040240ED
:10496000A48240420080404224824042A0824042D1
:1049700070B5002600BF7521D020FFF7C7FF0546A0
:10498000682DF8D1002601226B21D020FFF77EFF91
:10499000C4B24FF4FA7000F063F900226B21D0200A
:1049A000FFF774FFC4B2322000F05AF90022192137
:1049B000D020FFF76BFF2044C4B2322000F050F942
:1049C00001221A21D020FFF761FF2044C4B2322017
:1049D00000F046F910221B21D020FFF757FF20449A
:1049E000C4B2322000F03CF909221C21D020FFF78C
:1049F0004DFF2044C4B2322000F032F9204670BD91
:104A000010B53B21D020FFF781FF624908703C219F
:104A1000D020FFF77BFF5F4948703D21D020FFF792
:104A200075FF5C4988703E21D020FFF76FFF594920
:104A3000C8703F21D020FFF769FF56490871402117
:104A4000D020FFF763FF534948714321D020FFF77F
:104A50005DFF504908724421D020FFF757FF4D49B0
:104A600048724521D020FFF751FF4A4988724621FC
:104A7000D020FFF74BFF4749C8724721D020FFF7EE
:104A800045FF444908734821D020FFF73FFF4149C3
:104A90004873FCF7D8FE10BD10B52DED048B4FF414
:104AA0007A7408EE104A9FED3C0AF0EE408A9FEDC2
:104AB0003A0AB0EE409A9FED380AF0EE409A002193
:104AC000364841858185C1853CE0FFF799FF314833
:104AD000407A3049097A40EA012000B22F4988849F
:104AE0002C48C07A2B49897A40EA012001B22B4830
:104AF000C1842848407B2749097B40EA012001B254
:104B000026480185B0F9240000EE100AB8EEC00A6C
:104B100030EE280AF0EE408A2048B0F9260000EE78
:104B2000100AB8EEC00A30EE090AB0EE409A1B48EF
:104B3000B0F9280000EE100AB8EEC00A30EE290ADB
:104B4000F0EE409A2000A4F10104BED1B8EEC80AEC
:104B5000C8EE800ABDEEE00A10EE100A01B20F485E
:104B6000C186B8EEC80AC9EE000ABDEEE00A10EE32
:104B7000100A01B209480187B8EEC80AC9EE800AD6
:104B8000BDEEE00A10EE100A01B204484187BDEC08
:104B9000048B10BD74060020000000002C060020CD
:104BA00010B504466FF00400FCF7EFFFE11704EBCB
:104BB0005171C1F3C701384A11701046007800EBFB
:104BC0004001C1EBC0104FF6FF7101EAC00033494C
:104BD000088010BD0146304A12784A434FF0E02366
:104BE0005A6100229A611A46126942F001021A6162
:104BF00000BF4FF0E022106910F0010F02D010F456
:104C0000803FF6D04FF0E022126922F001024FF00F
:104C1000E0231A6100229A61704701461F4A1288F8
:104C20004A434FF0E0235A6100229A611A46126902
:104C300042F001021A6100BF4FF0E022106910F04B
:104C4000010F02D010F4803FF6D04FF0E02212693D
:104C500022F001024FF0E0231A6100229A617047AE
:104C600070B504464FF4077094FBF0F0C6B24FF4F1
:104C7000077094FBF0F100FB114085B205E04FF4A2
:104C80000770FFF7CAFF701EC6B2002EF7D115B12C
:104C90002846FFF7C2FF70BDFA000020FC0000208C
:104CA000F0EE400AB7EE082AF0EE421AB6EE002AFD
:104CB00020EE822AB0EE421AB0EE600A10EE100A20
:104CC000FE49A1EB600000EE100A61EE002AB7EE8B
:104CD000082A02EEC02A22EE002AB0EE420A7047ED
:104CE000F0EE400AF5EEC00AF1EE10FA02D2B1EE93
:104CF000600A7047B0EE600AFBE7F0EE400A20EE73
:104D0000A01AB0EE002AC1EE021AB7EE001A31EE78
:104D1000611AB0EE410A7047F0EE400A20EEA01A88
:104D200061EE201AB1EE082A81EE821A30EEC11A25
:104D3000B0EE410A7047F0EE400A9FEDE11AB0EE86
:104D4000410AF5EEC00AF1EE10FA03D2B1EE601A94
:104D5000F0EE410A9FEDDB1AF4EEC10AF1EE10FA13
:104D600003DD9FEDD81AF0EE410ADFEDD71AB7EE5A
:104D7000001A01EEE01AB0EE410AB5EEC00AF1EEFB
:104D800010FA03D29FEDCE1AB0EE410A704700B57B
:104D90002DED108B99B0F0EE40BAB0EE60CAF0EE97
:104DA00041CAB0EE61DAB0EE42AAF0EE62AAF0EECD
:104DB000439AF0EE638AB0EE449AC44890ED000A3C
:104DC00020EE000A8DED0D0A90ED000AC048D0EDEE
:104DD000000A20EE200A8DED0C0ABC4890ED000A76
:104DE000BC48D0ED000A20EE200AF0EE40DAB748C9
:104DF00090ED000AB848D0ED000A20EE200A8DEDB3
:104E00000B0AB34890ED000A20EE000AB0EE40EA2B
:104E100090ED000AAF48D0ED000A20EE200A8DED9B
:104E20000A0AAB4890ED000AAB48D0ED000A20EE2C
:104E3000200AF0EE40EAA74890ED000A20EE000AB2
:104E4000B0EE40BA90ED000AA348D0ED000A20EE83
:104E5000200A8DED090A90ED000A20EE000A8DED82
:104E6000080A2DEE0A0A20EE2A0AB5EEC00AF1EE73
:104E700010FA03D119B0BDEC108B00BDB6EE000ADC
:104E800070EE4B0A9DED080A30EEC00A20EE290AAA
:104E9000DDED0A0A9DED0B1A70EEC10A08EEA00ABC
:104EA0007EEEAD0A09EE200AF0EE000A20EE200A9E
:104EB0008DED150A9DED0A0ADDED0B0A30EE200A94
:104EC00020EE290AF6EE000A30EECE1ADDED080AD1
:104ED00071EE600A08EEA00ADDED090A9DED0C1ADC
:104EE00070EEC10A09EE200AF0EE000A20EE200A58
:104EF0008DED140A9DED150A60EE000A9DED140A71
:104F000040EE000A10EE901A084601F0D5FE41EC82
:104F1000100B8DED040B9DED040B01F025F88DEDCC
:104F2000060B9DED060B51EC100B01F045F91390AB
:104F30003EEEED0A20EE290ADDED090A9DED0C1A80
:104F400070EE810A08EEA00AF6EE000A70EECE0AB4
:104F500070EECB0A09EE200AF0EE000A20EE200ADD
:104F60008DED120AB6EE000A70EE4B0A9DED080AAE
:104F700070EEC00A9DED130A60EE800A3EEEED1A57
:104F80009DED120A40EE010ACDED110A9DED0A0ACF
:104F9000DDED0B0A70EE600A9DED130A60EE800AEB
:104FA0009DED0C0A9DED091A30EE011A9DED120AD5
:104FB00040EE010AB0EE60FA7DEEAE0A9DED130AF6
:104FC00060EE800AB6EE000A30EE4E0A30EE4B1A62
:104FD0009DED120A40EE010AF0EE60FA6DEE0D0A48
:104FE0004AEE0A0A4AEEAA0AB0EE600AFFF758FE35
:104FF000B0EE408A2DEE080AB0EE40DA2AEE080A3A
:10500000B0EE40AA2AEE880AF0EE40AADDED110AC1
:1050100060EEA00A4FEE0F0A4FEEAF0AB0EE600A44
:10502000FFF73EFEB0EE408A9DED110A20EE080A21
:105030008DED110A2FEE080AB0EE40FA2FEE880A25
:10504000F0EE40FA69EEA90A48EEA80A49EE090A0C
:10505000B0EE600AFFF724FEB0EE408A29EE880A1F
:10506000F0EE409A28EE880AF0EE408A29EE080A0F
:10507000B0EE409A3EEEED0AF0EE000A20EE200A75
:105080008DED180A9DED0C0ADDED090A30EE200ABF
:10509000F0EE000A20EE200A8DED170A9DED0D0AB4
:1050A00030EE4E0A70EE4B0A9DED080A30EE800A93
:1050B0008DED160A9DED160A10E00000DF59375FEE
:1050C00000000000CDCC4C3F0AD7A33F00010020D8
:1050D00004010020080100200C0100206AEE000AF3
:1050E0009DED170A4AEEC00A28EEAF0A09EE4F0AF4
:1050F00030EE800A8DED100A9DED180A6AEE800AE6
:105100009DED160A4DEE400A9DED110A29EE000AAA
:1051100009EEEF0A30EE800A8DED0F0A9DED170AB9
:105120006DEE000A9DED180A4AEE400A29EE8F1A2C
:105130009DED110A08EEC01A30EE810A8DED0E0ABF
:105140009DED100AFFF7F7FDF0EE400A9DED100A05
:1051500060EE800AFE4890ED000A9FEDFE1A00EE18
:10516000810A80ED000A9DED0F0AFFF7E4FDF0EEE5
:10517000400A9DED0F0A60EE800AF74890ED000AA4
:105180009FEDF41A00EE810A80ED000A9DED0E0AF3
:10519000FFF7D1FDF0EE400A9DED0E0A60EE800AA9
:1051A000EE4890ED000A9FEDEB1A00EE810A80EDCB
:1051B000000A9DED100AFFF7BEFDF3EE040A20EE93
:1051C000201A9DED100AF0EE6B0A41EE000AE0484D
:1051D00090ED000A30EE800AF0EE40BA9DED0F0A25
:1051E000FFF7A9FDF3EE040A20EE201A9DED0F0A49
:1051F000F0EE4C0A41EE000AD74890ED000A30EE7E
:10520000800AB0EE40CA9DED0E0AFFF794FDF3EE62
:10521000040A20EE201A9DED0E0AF0EE6C0A41EE13
:10522000000ACE4890ED000A30EE800AF0EE40CA47
:10523000CB4890ED000AB1EE400A20EE2B0AC94897
:10524000D0ED000A00EECC0AC748D0ED000A00EE0F
:10525000EC0AC648D0ED000A9FEDBE1A40EE010AE6
:10526000C0ED000A90ED000A20EE2B0ABD48D0EDFB
:10527000000A00EEAC0ABC48D0ED000A00EECC0AF1
:10528000B748D0ED000A9FEDB31A40EE010AC0ED19
:10529000000AB64890ED000A20EE0C0AB048D0EDA6
:1052A000000A00EEEC0AB048D0ED000A00EEAB0AAE
:1052B000AC48D0ED000A9FEDA71A40EE010AC0ED00
:1052C000000AAA4890ED000A20EE2C0AA448D0ED6E
:1052D000000A00EE8C0AA348D0ED000A00EEEB0AAB
:1052E000A148D0ED000A9FED9B1A40EE010AC0EDE7
:1052F000000ADDED0D0A70EE8E0A30EE8B1ADDED40
:10530000080A71EE200AB0EE600AFFF7C9FCB0EEA1
:10531000408A964890ED000A20EE080A80ED000AC7
:105320008F4890ED000A20EE080A80ED000A8D48B3
:1053300090ED000A20EE080A80ED000A8A4890ED00
:10534000000A20EE080A80ED000AB8EE000A2EEEF0
:10535000000AF0EE000A00EECB0AF7EE000A30EE8B
:10536000200A10EE101A084601F0A6FC41EC100BC2
:105370008DED040B9DED090AF0EE000A60EE200AA7
:105380009DED0C0AB0EE001A41EE000A10EE901AE4
:10539000084601F091FC41EC100B8DED020B9DEDE8
:1053A000041B9DED020B00F0EFFC8DED060B9DED57
:1053B000060B51EC100B00F0FFFE6D490860B8EED3
:1053C000000A2EEE800AF0EE000A00EEAD0A10EEA2
:1053D000101A084601F070FC41EC100B8DED040B27
:1053E0009DED040B00F0A4F98DED060B9DED060B71
:1053F00051EC100B00F0E0FE5D494860594890ED1B
:10540000000AF8EE000A20EE200AD0ED000A20EE95
:10541000200A5548D0ED000AB0EE001A60EE810A6D
:1054200090ED001A00EEC10AF7EE000A30EE200AF5
:1054300010EE101A084601F03FFC41EC100B8DED08
:10544000020B474890ED000AF0EE000A20EE200A19
:105450004448D0ED000A20EE200A4448D0ED000A6E
:10546000B0EE001A60EE810A3F4890ED001A00EE9F
:10547000810A10EE101A084601F01EFC41EC100BD8
:105480008DED000B9DED021B9DED000B00F07CFCF3
:105490008DED040B9FED370B53EC102B9DED040BA2
:1054A00051EC100B01F048F941EC100B8DED060B9F
:1054B0009DED060B51EC100B00F07EFE2C49886030
:1054C000084690ED010A10EE101A084601F0F4FBB0
:1054D00041EC100B8DED040B9FED280B53EC102BC2
:1054E0009DED040B51EC100B01F026F941EC100B73
:1054F0008DED060B9DED060B51EC100B00F05CFEE4
:105500001B494860084690ED000AB1EE400A10EED3
:10551000101A084601F0D0FB41EC100B8DED040B86
:105520009FED160B53EC102B9DED040B51EC100B63
:1055300001F002F941EC100B8DED060B9DED060B11
:1055400051EC100B00F038FE09490860084619E0DC
:10555000100100206F12033A1401002018010020EE
:1055600004010020080100200C010020000100209F
:10557000940600206666666666A64C4031B3CF632B
:1055800094A94C4090ED010A304880ED000A08468D
:1055900090ED000A2D4880ED010A084690ED020AC0
:1055A0002A4880ED020A084690ED000AB5EEC00ACE
:1055B000F1EE10FA07DD90ED000ADFED250A30EE7E
:1055C000600A80ED000A234890ED000ADFED220A10
:1055D00030EE200A80ED000A00BF4BE410B51F48F2
:1055E000B0F90A0003EE100AB8EEC33AF0EE432A0F
:1055F0001A48B0F9080003EE100AB8EEC33AB0EE4C
:10560000432A1648B0F9060003EE100AB8EEC33A72
:10561000F0EE431A114890ED113AB0EE431A90EDB6
:10562000103AF0EE430A90ED0F3AB0EE430A0C4800
:1056300090ED004A0B4890ED003AF1EE433A0A48EB
:1056400090ED003AFFF7A3FB10BD00001C06002000
:105650000000B44394060020000020432C060020E4
:10566000D8000020D0000020D400002070477047F0
:10567000704710B500F008F8006810BD10B504467A
:1056800000F002F8046010BD00487047A00600203A
:1056900000487047A00600207546FFF7F9FFAE46A8
:1056A00005006946534620F00700854618B020B52E
:1056B000FCF706FABDE820404FF000064FF0000767
:1056C0004FF000084FF0000B21F00701AC46ACE8AA
:1056D000C009ACE8C009ACE8C009ACE8C0098D4617
:1056E00070470446AFF300802046FAF796FD0000AD
:1056F00001491820ABBEFEE726000200704703B444
:1057000001984100009850EAC12018BF04204A0DBA
:1057100018BF40F0010040F2FF72B2EB515F08BFCA
:1057200040F00200012808BF052002B070470000C9
:1057300070B5C1482DED020B2DED0E8B82B0119D81
:1057400025F000449FEDBEBB9FEDBFDB844240DBF4
:10575000A4F140511098A1F17F6108430ED0BC48DC
:10576000844202DC27D1109828B39DED100B53EC36
:10577000102B51EC100B00F051FD27E09DED100BAC
:1057800053EC1B2B51EC100B00F0D6FF9DED100BD2
:1057900041EC180B53EC1D2B51EC100B00F0CCFF1F
:1057A00053EC182B00F03AFD41EC100B02B0BDECAD
:1057B0000E8B02B070BD0120FFF760FF9FEDA60BBE
:1057C00053EC102B51EC100B00F0DCFD41EC100BF6
:1057D000ECE7A3489FEDA48B844256DA9DED100BB5
:1057E000B4F1795F0ADA51EC100BFFF788FF042857
:1057F00008BF00F075FC9DED100BD7E753EC102BA4
:1058000051EC100B00F098FF41EC190B9848062161
:10581000B0EE490AF0EE690A784400F0E2FB53EC7E
:10582000192B51EC100B00F087FF41EC1A0B91483B
:10583000B0EE490AF0EE690A0421784400F0D1FB89
:1058400053EC192B51EC100B00F076FF53EC182B96
:1058500000F0E4FC41EC100B51EC1A0B53EC102B54
:1058600000F090FD41EC100B8DED000B53EC102B74
:105870009DED100B51EC100B00F05EFF9DED101B29
:1058800053EC112B00F0CAFCA0E79DED100B51EC7E
:10589000100B00F03DFC53EC182B01F04BF841ECE1
:1058A000100B8DED000B9FED740B53EC102B9DED49
:1058B000000B51EC100B00F03FFF41EC190B70484E
:1058C0000621B0EE490AF0EE690A784400F089FB3F
:1058D00053EC192B51EC100B00F02EFF41EC1C0B7C
:1058E0006848B0EE490AF0EE690A0421784400F0F5
:1058F00078FB53EC192B51EC100B00F01DFF53EC0F
:10590000182B00F08BFC41EC1E0B51EC190B00F036
:105910000FFC41EC180B5C489FED5DABA04222DC14
:1059200053EC1E2B51EC1C0B00F02CFD41EC100B2A
:1059300051EC180B8DED000B53EC102B00F0FCFE1E
:1059400053EC182B00F06AFC53EC1A2B00F0F4FE19
:1059500053EC1B2B01F0C6F853EC1D2B00F0EAFFB3
:1059600041EC100B5FE08DED008B002000909DED71
:10597000000B51EC180B53EC102B00F04FFC9DED7D
:10598000000B41EC1D0B53EC102B51EC100B00F0F5
:10599000D3FE53EC192B00F0CDFF53EC1D2B00F080
:1059A000F1FC41EC190B53EC1E2B51EC1C0B00F0DD
:1059B000E9FC41EC1C0B53EC1A2B51EC190B00F0D9
:1059C000BBFE53EC1B2B00F0B5FF41EC190B53EC65
:1059D0001A2B51EC180B00F0AFFE53EC1C2B00F00F
:1059E000ABFE53EC192B01F07DF89DED000B41EC63
:1059F000180B53EC1A2B51EC100B00F09DFE9FED91
:105A0000269B53EC192B00F095FF41EC100B51EC49
:105A1000180B53EC102B01F065F853EC192B00F028
:105A200089FF41EC100B002D3FF7C0AE51EC100B7D
:105A300000F0B5FBCAE600000000F03F00000000E7
:105A4000075C143326A6913C182D4454FB21F93FE2
:105A50000000F07F000000000000000000000000D7
:105A60000000E03F00000000000000000000F03FE8
:105A700094150000A2150000000000000000E03FA7
:105A8000E2140000F01400003333EF3F0000000088
:105A90000000000000000040182D4454FB21E93FA5
:105AA00070B59F482DED020B2DED068B079D25F05F
:105AB0000044A0421DDC9B48844202DC0FD10698C2
:105AC00068B19DED060B53EC102B51EC100B00F060
:105AD000A5FBBDEC068B02B041EC100B70BD002D98
